:100000000C942A000C9447000C9447000C94470071
:100010000C9447000C9447000C9447000C94470044
:100020000C9447000C9447000C94C8000C944700B3
:100030000C9447000C9447000C9447000C94470024
:100040000C9447000C9447000C9447000C94470014
:100050000C94470011241FBECFE5D8E0DEBFCDBF12
:1000600011E0A0E6B0E0EAECFAE002C005900D92E3
:10007000A23EB107D9F711E0A2EEB1E001C01D9296
:10008000A63FB107E1F70E94D6020C9463050C94D9
:10009000000083E389B910BC529886E880BD539A6A
:1000A000549A08955D9BFECF8CB95D9BFECF5E9AFE
:1000B0000895CF93DF93EC0103C021960E94520074
:1000C00088818823D1F7DF91CF9108955F9BFECF80
:1000D0008CB10895EF92FF920F931F93CF93DF930C
:1000E00081E090E00E9450039C015F9BFECFFCB03A
:1000F000EE2411C00E2D10E0B8016F5F7F4FC901D3
:100100000E9455049C01080F191FF801F0825F9BA3
:10011000FECFE394FCB0FAE0FF1611F0FF2051F798
:100120000E2D10E0B8016F5F7F4FC9010E9455048A
:10013000EC01009729F480E090E00E94FD0304C0E8
:10014000080F191FF8011082CE01DF91CF911F9186
:100150000F91FF90EF90089583B7886083BF83B7B6
:100160008F7B83BF89B7826089BF89B78E7F89BF44
:1001700087EC8CBF83B7887C83BF83B7826083BFE3
:100180000895009721F09093E3018093E201089590
:100190001F920F920FB60F9211242F933F934F93FC
:1001A0005F936F937F938F939F93AF93BF93EF93DF
:1001B000FF93E091E201F091E301309709F0099596
:1001C000FF91EF91BF91AF919F918F917F916F912F
:1001D0005F914F913F912F910F900FBE0F901F9005
:1001E000189582E080B911B882B984E086BF08957D
:1001F00084EA86BF06B607FEFDCF089584E986BF70
:10020000089583B984E886BF06B607FEFDCF08953A
:1002100084EC86BF06B607FEFDCF83B1089584E85F
:1002200086BF06B607FEFDCF83B1089581B1887FF2
:1002300008958FB780688FBF08958FB78F778FBF6E
:1002400008951ABA8FEF87BB84BB8EEF81BB1BBAB0
:1002500018BA15BA12BA08953E9A3F983D98359843
:100260003098319A329A379A0895982F803218F040
:1002700020E030E00CC087B1807E87B987B1892B40
:1002800087B9369A349BFECF349A24B135B1C9016F
:1002900008951F93182F80ED97E00197F1F70E94C2
:1002A000F8000E941601883099F48EE40E94010142
:1002B0000E941601883161F4812F88600E9401013B
:1002C0000E941601883221F40E94FE0081E001C0E4
:1002D00080E01F9108958091E4018B7F8093E40179
:1002E0000E94490180ED97E00197F1F70895809110
:1002F000E40184608093E4010E94490180ED97E06D
:100300000197F1F708951F93182F80ED97E001975B
:10031000F1F7912F907F8091E40181608D70982B8F
:100320009093E4010E9477010E946B011295107F67
:100330008091E4018F70812B8093E4010E9477010A
:100340000E946B011F9108951F93CF93DF93EC01DF
:1003500010E003C00E9483011F5FFE01E10FF11D49
:1003600080818823B9F7DF91CF911F9108951F9362
:10037000182F80ED97E00197F1F78091E4018C7FD1
:100380008093E4010E947701912F907F8091E40196
:100390008F70982B9093E4010E9477010E946B016B
:1003A0001295107F8091E4018F70812B8093E4017E
:1003B0000E9477010E946B011F910895CF93DF93F4
:1003C00080E40E94B701C9EDD1E089910E948301C8
:1003D00081E0C13ED807C9F7DF91CF91089581E050
:1003E0000E94B701089580E69AEE0197F1F70E9406
:1003F000F1000E94DE0182E00E94B7018EE00E94BF
:10040000B70181E00E94B7010895EF92FF920F9328
:100410001F937C01681B790B80E090E00E94FB0237
:1004200000E010E0A80197010E942E03C9011F916E
:100430000F91FF90EF9008951F93182FFB0120E07C
:1004400030E050E00CC0DF0180813396811729F441
:1004500011962D913C91129707C02F5F3F4F2417A3
:1004600035078CF320E630E0C9011F9108951F93F2
:10047000CF93DF93C9EED1E010E0812F0E943501C8
:100480009093EF018093EE01A0E0B0E0BC01CD01BC
:1004900028E833E140E050E00E94FB02DC01CB01A0
:1004A0002AE0B695A795979587952A95D1F79093C9
:1004B000F1018093F00168E873E120EA36E841E059
:1004C00050E00E94050268EE73E00E941A036993EF
:1004D0001F5F153091F68091E9018A3110F450E0E8
:1004E00001C050E18091EA018A3110F440E001C07E
:1004F00048E08091EB018A3110F430E001C034E033
:100500008091EC018A3110F420E001C022E090E0FB
:100510008091ED018A3108F091E0852F892B842BA1
:10052000832B822B8093E601DF91CF911F91089559
:100530000F931F93CF93DF938091E7019091E80190
:1005400001969093E8018093E7018053954749F520
:100550001092E8011092E7010E943702982F8093D1
:10056000E6018091E5019817E1F0892F69E771E0D4
:1005700040E20E941C028C010E94EF01C8010E940F
:1005800059000E946A00EC01009711F488E690E09F
:100590000E94A401CE010E94FD038091E601809398
:1005A000E501DF91CF911F910F9108950E942101E4
:1005B0000E942C010E9419010E94F3018EE690E036
:1005C0000E94A40180E00E94830181E790E00E94E4
:1005D000A40180E395E728EC30E0F9013197F1F7C9
:1005E0000197D9F788E992E00E94C1000E94AC000F
:1005F0000E944900FFCF629FD001739FF001829F4C
:10060000E00DF11D649FE00DF11D929FF00D839FA1
:10061000F00D749FF00D659FF00D9927729FB00D3E
:10062000E11DF91F639FB00DE11DF91FBD01CF0151
:1006300011240895AA1BBB1B51E107C0AA1FBB1FB1
:10064000A617B70710F0A61BB70B881F991F5A955E
:10065000A9F780959095BC01CD010895A1E21A2ECD
:10066000AA1BBB1BFD010DC0AA1FBB1FEE1FFF1F56
:10067000A217B307E407F50720F0A21BB30BE40BA6
:10068000F50B661F771F881F991F1A9469F76095ED
:100690007095809590959B01AC01BD01CF010895A7
:1006A000CF93DF93BC018230910510F462E070E0DB
:1006B000A091F401B091F501ED01E0E0F0E040E03F
:1006C00050E021C0888199818617970769F48A8153
:1006D0009B81309719F09383828304C09093F50136
:1006E0008093F401FE0134C06817790738F441158E
:1006F000510519F08417950708F4AC01FE018A81B1
:100700009B819C01E9012097E9F641155105A9F16A
:10071000CA01861B970B049708F4BA01E0E0F0E0E9
:100720002AC08D919C91119784179507F9F464174D
:10073000750781F412968D919C911397309719F05B
:100740009383828304C09093F5018093F401FD01AB
:1007500032964FC0CA01861B970BFD01E80FF91FA7
:100760006193719302978D939C9343C0FD018281A5
:1007700093819C01D9011097A1F68091F20190918B
:10078000F301892B41F4809175019091760190934A
:10079000F3018093F2014091770150917801411566
:1007A000510541F44DB75EB780917301909174018A
:1007B000481B590B2091F2013091F30124173507A2
:1007C000B0F4CA01821B930B8617970780F0AB0128
:1007D0004E5F5F4F8417950750F0420F531F5093A1
:1007E000F3014093F201F9016193719302C0E0E0DB
:1007F000F0E0CF01DF91CF910895CF93DF93009781
:1008000009F450C0EC0122971B821A82A091F401D6
:10081000B091F501109709F140E050E0AC17BD0729
:1008200008F1BB83AA83FE0121913191E20FF31FEE
:10083000AE17BF0779F48D919C911197280F391F3E
:100840002E5F3F4F3983288312968D919C91139789
:100850009B838A834115510571F4D093F501C093B0
:10086000F40120C012968D919C911397AD010097D1
:1008700011F0DC01D3CFFA01D383C28321913191EE
:10088000E20FF31FCE17DF0769F488819981280FE3
:10089000391F2E5F3F4FFA01318320838A819B816C
:1008A00093838283DF91CF910895A0E0B0E0EBE5E0
:1008B000F4E00C9432058C01009729F4CB010E94DE
:1008C00050038C01BAC09EEFE92E9FEFF92EE00E87
:1008D000F11E5801A60EB71EAE14BF0408F4ABC03B
:1008E0008EEF882E8FEF982E8A0C9B1CE701488193
:1008F000598146175707B8F04530510508F49DC097
:10090000CA0104978617970708F497C042505040D1
:10091000461B570BF4015183408379836883C501DB
:100920000E94FD038AC06B01C41AD50AE091F4014C
:10093000F091F501A0E0B0E0C0E0D0E042C0E815E1
:10094000F905A1F5208131812C153D0578F1C9010A
:1009500002968C159D05A8F04E5F5F4F420F531F06
:10096000E7015983488322813381109729F0139638
:100970003C932E93129761C03093F5012093F401BC
:100980005CC0225030402C193D09318320831097E0
:1009900029F01396FC93EE93129704C0F093F5019F
:1009A000E093F401F7017183608347C080819181F6
:1009B000C817D90708F4EC01DF01828193819C01FB
:1009C000F901309709F0BBCF400F511F8091F20120
:1009D0009091F30184179507E9F4C617D707D0F46F
:1009E00020917701309178012115310541F42DB71F
:1009F0003EB78091730190917401281B390BA216A8
:100A0000B306C8F4B092F301A092F201E701798332
:100A1000688313C0CB010E945003EC01009759F08A
:100A2000F70140815181B8010E942305C8010E944D
:100A3000FD038E0102C000E010E0C801CDB7DEB7B3
:100A4000ECE00C944E05FB01DC0102C001900D921C
:100A500041505040D8F708952F923F924F925F92A5
:100A60006F927F928F929F92AF92BF92CF92DF92BE
:100A7000EF92FF920F931F93CF93DF93CDB7DEB723
:100A8000CA1BDB0B0FB6F894DEBF0FBECDBF0994B7
:100A90002A88398848885F846E847D848C849B840E
:100AA000AA84B984C884DF80EE80FD800C811B811C
:100AB000AA81B981CE0FD11D0FB6F894DEBF0FBE4B
:0A0AC000CDBFED010895F894FFCFBB
:100ACA00556E6B6E6F776E004572726F72004920B9
:100ADA000020494D540050524F4A45435400626128
:100AEA006E616E61006F72616E6765006772617038
:100AFA0065006B6977690070656172006D656C6F7E
:100B0A006E0063686572727900596F75006C696D61
:100B1A006500626C756562657272790073747261E0
:100B2A007762657272790072617370626572727946
:100B3A0000626C61636B62657272790070696E65DE
:100B4A006170706C65006D616E676F0077617465C6
:100B5A00726D656C6F6E00706561636800706C75AC
:100B6A006D0061707269636F74006E65637461729F
:100B7A00696E650066696700706F6D656772616EA0
:100B8A0061746500636F636F6E757400677261707C
:100B9A006566727569740070617061796100617669
:100BAA006F6361646F0063616E74616C6F75706509
:100BBA0000686F6E657964657700647261676F6E4D
:100BCA0066727569740070617373696F786672759D
:100BDA006974002000F6010000007600017E000220
:100BEA008500038C00049200059700069C0007A26A
:100BFA000008A90009AD000AB2000BBC000CC7002E
:100C0A000DD1000EDC000FE60010EC0011F7001207
:100C1A00FD00130201140A01151401161801172404
:100C2A0001189200192C011A37011B3E011C4601BA
:100C3A001D51011E5A011F6601000A1F1F0E0400E2
:020C4A000000A8
:00000001FF
